568         0400-31680000000103760370Spillway                 Dam access road   Fontenelle Dam           999900000000000000000000000042030000110070003696906196801000000152005500670000000040000000000A15102000001000000000122000128000000006100679999N0000N9990007888N1760145085N576   000000081124N  N  N              000000000000000000         0000000000000000N3 0000001100000 Y800000020250000NY          120711BZ                 0 09600
568      14JCK10011610000000003900000SNAKE RIVER              GRAND TETON NP RD JACKSON LAKE DAM         999900000000            435127291103520370963696909191202000018002011000730000111150000000000A15201000023000007300037000677017028007301269999N0000N0000007767N1774146464N587   000000081124N  N  N              000000000000000000                        0N2 0000001000050 Y80023002031    NY          120711BZ                 0 07220
568     WYA-BU-0011480000000001300000BOYSEN DAM SPILLWAY      ACCESS ROAD       Approximately 20 miles So999900000000          00432500661081037381993696909194801000000502002500430000111140000000000P15104000002000003700104000208003003003700439999N0000N0000007878N1350121064N494381000000071124N  N  N              0004000000400000002011   0 0000000000000000N3 0000001200000 Y900005520290000NY          120711BZ                 0 06270
568     WYA-GU-0011440000000003100000GLENDO DAM SPILLWAY      COUNTY ROAD       Located on Glendo Dam, ap999900000000          00422837731045705071323696908195402000000102002500820000111N40000000000A15104000001000007300137000143002002007300829999N0000N0000008878N1540132076N596   000000071124N  N  N              0000000000000000002008   0 0000000000000000N2 0000001100000 Y900001120290000NY          120711BZ                 0 09250
568     WYA-RU-0011440000000001300000BULL LAKE DAM SPILLWAY   COUNTY ROAD       Approximately 19 miles we999900000000          004312362810902309209932569091938010000000520025009100001NNN30000000000A15310000001000002700305000317025002002700549999N0000N0000005448N1290117042N398   000000071124N  N  N              0460000046000000562011   0 0000000000000000N3 0000001100000 Y800000620290000NY          120711BA                 1 03321
568     WYA-SU-0011440000000000700000NORTH PLATTE RIVER       COUNTY ROAD       28 miles south west of Al999900000000          00421230001065234151593696908198902000000602002500730000111150000000000A55504000003000007300250000741011000007300919999N0000N0000008558N1330133056N498   000000071124N  Y60N      1004    0009500000950000012011   0 0000000000000000N2 0000002600020 Y600006620290000NY          120711BZ                 0 08350
568    WYA-NPP-0011440000000003100000GUERNSEY DAM SPILLWAY    LAKE SHORE DRIVE  1.5 miles north an 1.75 m999900000000          00421727361044552150293696908192601000000102002500610000111110000000000P15104000001000004900152000241002007004900629999N0000N0000006559N1090105033N094   000000071124N  N  N              0003000000300000002011   0 0000000000000000N3 0000001600000 Y900001120290000NY          120711BA                 2 02242
56800000000000C8011610000500501300000S FORK LITTLE WIND RIVER IRR BIA RTE    5  3.2KM WEST OF FT WASHAKIE999900002000000000000000430001501085616900083626206196502000005002011500780000000050000000000A15502000001000007300183000189002002007300829999N0000N0000006775N5442532474N587   000000101124N  N  N              0000000000000000002011   0                0N2 0100001608120 Y600058520310000NY          120607BZ                 0 08580
56800000000000C8021610001200501300000LITTLE WIND RIVER        IRR BIA RTE 12    21.7 KM  WEST OF RIVERTON999900008000000000000000430014901083924700163626206197302000000352011500900000100050000000000A15502000003000009800183000504001001009801069999N0000N0000006775N5442532478N566   000000101124N  N  N              0000000000000000002011   0                0N2 0100001108100 Y600004120310000NY          120607BZ                 0 09800
56800000000000C8091610010100501300000TRIBUTARY TO SHOTGUN CRK IRR BIA RTE   101 14.5 KM   SE OF MAIL CAMP999900095000000000000000432734501084416001003626206195101000000202011100380000000050000000000B15702000001000004000058000062002002004400499999N0000N0000005667N5226514346N066   000000101124N  N  N              0000000000000000002011   0                0N3 0100008609100 Y600002320310000NY          120607BZ                 0 05420
56800000000000C8101610010100501300000SHOTGUN   CREEK          IRR BIA RTE   101 15.3 KM   SE OF MAIL CAMP999900089000000000000000432725801084415000973626206195101000000302011100380150000050000000000P15702000003000004000058000177002002004200479999N0000N0000006655N5276520155N156   000000101124N  N  N              0000000000000000002011   0                0N3 0100008609100 Y600003520310000NY          120607BZ                 0 05400
56800000000000C8141610004600501300000SUB AGENCY DITCH         IRR BIA RTE   46  14.5 KM   SW OF RIVERTON 999900005000000000000000425807301082956400063626206197002000003002011400780000110050000000000P15122000001000008200091000098001001008600989999N0000N0000007775N5347524566N367   000000101124N  N  N              0000000000000000002011   0                0N2 0100002608120 Y600035020310000NY          120607BZ                 0 09170
56800000000000C8151610004600501300000SUB AGENCY DITCH         IRR BIA RTE 46    11.3 KM SW OF RIVERTON   999900058000000000000000425827601082744200103626206197002000003002011400660000110050000000000P15122000001000007900091000098001001008600989999N0000N0000007775N5331522966N287   000000101124N  N  N              0000000000000000002011   0                0N2 0100002608150 Y600033420310000NY          120607BZ                 0 08930
56800000000000C8271610010100501300000LOWER MUDDY CREEK        IRR BIA RTE 101   0.8 KM SW OF JCT 18 & 101999900409000000000000000432535101084115200483626206197702000000502011600700000110050000000000A15502000001000009100229000236000000009701049999N0000N0000006766N5473535667N586   000000101124N  N  N              0000000000000000002011   0                0N2 0100001600100 Y600005920310000NY          120607BZ                 0 09890
56800000000000C8281610014000501300000CROW CREEK               IRR BIA RTE 140   0.8 KM NE OF JCT 23 & 140999900013000000000000000432925301091522300113626209197702000000052011400460000100050000000000A15502000001000004600137000145000000009601049999N0000N0000007775N5450533377N577   000000101124N  N  N              0000000000000000002011   0                0N2 0100001100100 Y600000720310000NY          120607BZ                 0 09800
56800000000000C8291610010100501300000FIVE MILE CREEK          IRR BIA RTE 101   0.8 KM NE OF JCT 22 & 101999900510000000000000000432018001084404700153626206197702000000502011500700150100050000000000A15502000001000009100183000190000000009801049999N0000N0000007778N5466532678N588   000000101124N  N  N              0000000000000000002011   0                0N2 0100001600100 Y600005920310000NY          120607BZ                 0 09800
56800000000000C8301610001600501300000COOLIDGE  CANAL          IRR BIA RTE 16    11.3KM EAST OF WIND RIVER999900010000000000000000425124601084746600133626206197902000003002011500700160110050000000000A15502000001000008500091000098000000009801049999N0000N0000007777N5489536677N587   000000101124N  N  N              0000000000000000002011   0                0N2 0100001608100 Y600035120310000NY          120607BZ                 0 09880
56800000000000C8311610010100501300000MUDDY CREEK              IRR BIA RTE 101   4 KM SOUTH OF MAIL CAMP  999900203000000000000000433017901085050300403626206197502000000902011500780000000050000000000A15319000001000009100076000076000000009100919999N0000N000000NNN565441532467N567   000000101124N  N  N              0000000000000000002011   0                0N2 010000NNNN150 Y600010520310000NY          120607BZ                 0 09680
56800000000000C8321610002500501300000TROUT CREEK IRRIG CANAL  IRR BIA RTE 25    AT WIND RIVER            999900010000000000000000425928101085106400103626206198402000000402011600720000110150000000000A15502000001000009100122000129000000009601049999N0000N0000007777N5493537477N587   000000101124N  N  N              0000000000000000002011   0                0N2 0100001108100 Y600004720310000NY          120607BZ                 0 10000
56800000000000C8331610001100501300000POPO AGIE RIVER          IRR BIA RTE 11    5.0 KM EAST OF MILFORD   999900002000000000000000425133601084139600233626206199202000000902011600720000001150000000000A15504000001000007200183000188000000007200799999N0000N0000007767N5484538165N585   000000101124N  N  N              0000000000000000002011   0                0N2 0100002100100 Y600010520310000NY          120607BZ                 0 09690
56800000000000C8341610003300501300000COOLIDGE CANAL           IRR BIA RTE 33    3.2 KM SW OF ETHETE      999900016000000000000000430046201084741300053626209199402000000102011400700200NNNN50000000000A15219000002000018300030000067003003008500859999N0000N000000NNN675454534077N587   000000101124N  N  N              0000000000000000002011   0                0N2 0100002808000 Y600001220310000NY          120607BZ                 0 10000
56800000000000C8351610014000501300000DRY CREEK                IRR BIA RTE 140   11 KM NE OF JCT 23 & 140 999900110000000000000000433153901090544600023626206199602000000202011600850000111150000000000A15504000001000008400071000073000000008400919900N0000N0000008875N1891161376N586   000000101124N  N  N              0000000000000000002011   0                0N2 0100002108100 Y600002420310000NY          120607BZ                 0 10000
56800000000000C8361610003200501300000BIG WIND RIVER           IRR BIA RTE 032   8.9 KM NORTH CROWHEART   039600093000000000000000432112201091119500533626209193001000000602011000430000000050000000000B15310302001000304300427000852004004004300510390N0000N0000005464N2063202722N083311000905101112Y12N  N  1012        0026340001050033212011   0                0N3 0119728700150 Y600007020310000NY          120607BA                 1 00001
56800000000000C8371610003100501321415MEADOW CREEK             IRR BIA RTE 31    1.5 KM SE OF CROWHEART   999900046000000000000000431759401091127600103626209197002000000502011300610000000050000000000B15702000003000006100073000219001001007100739999N0000N0000005565N1307121655N158   000000101124N  N  N              0000000000000000002011   0                0N2 0100008600150 Y600005920310000NY          120607BZ                 0 07140
56800000000000C8381610003200501321415CROW CREEK               IRR BIA RTE 32    11.3 KM NE OF CROWHEART  999900020000000000000000431947401090857000533626209197001000000152011100500000000050000000000P15702000001000005000076000076000000004700619999N0000N0000005545N1228117147N076331000080101124N  N  N              0001550000500002702011   0                0N3 0100008700100 Y600001820310000NY          120607BA                 1 04241
56800000000000C8391610028000501321415BIG WIND RIVER           IRR BIA RTE 280   1KM N US 26/WILDERNESS RD999900139000000000000000432620001092159100403626209192001000000402011000380000000050000000000P15310303001000103800302000469002002004400489999N0000N0000005467N2074203926N083311000650101112Y12N  N  1012        0010760001050014652011   0                0N3 0100008700100 Y600004820310000NY          120607BA                 1 02141
56800000000000C8401610007800501300000WIND RIVER               IRR BIA RTE 78    2 KM SW OF ARAPAHOE SCHOO999900015000000000000000425740001082958001993626208201002000015002011600800300111150000000000A55302000007000011300173000439000000011301209999N0000N0000007788N3389330176N588   000000101124N  N  N              0000000000000000002011   0                0N2 0100001000050 Y600195020310000NY          120607BZ                 0 07970
56800000000000C8411610002000501300000MILL CREEK               PLUNKETT ROAD     .6KM S. 17 MI ROAD       097000006000000000000000425934001085456000033626208201002000004092011500972150111150000000000A15522000001000009700170000176000000010101119999N0000N0000007778N2581243676N577   000000101124N  N  N              0000000000000000002011   0                0N2 0100002600010 Y600047820310000NY          120607BZ                 0 09990
568000000000L592331610000000000700000ENCAMPMENT RIVER         ENCAMPMENT TRAILHE5 miles SW Encampment, WY999900000000            41104800106472400016368680819810100000020201150049000011NN50000000000A15703000003000002100302000388000000002100219999N0000N0000005999N5   5   *2N574   000000090824N  N  N              000000000000000000                        0N3 00000087N0000 YU0000202031    NY          120710BA                 2*07802
568000000000L592341610000000002900000WHISTLE CREEK            1213: WHISTLE CREE43 M NW Greybull, WY     999900194690            443636001083748000163686809200301000000252011500610900NNNN50000000000A15302000001000003200146000152000000003200329999N0000N0000007775N5   5   *2N576   000000100924N  N  N              000000000000000000                        0N3 0000008700000 YU0000252031    NY          120710BZ                 0*08102
568000000000L592351610000000004300000NOWATER CREEK            1405: NEIBER ROAD 12 Miles S Worland, WY   999900212390            43510000107540000016368680920030100000030201150061090011NN50000000000A15302000001000004300180000192000000004300439999N0000N0000009988N5   5   *6N576   000000100924N  N  N              000000000000000000                        0N3 0000006800000 YU0000302031    NY          120710BZ                 0*08500
568000000000L592361610000000004300000WILD HORSE CREEK         1434: WT DRIVEWAY 18 M SE Worland,WY       999900017700            44004000107344800040368680820030100000025201150061090000NN50000000000A15702000004000007300058000237000000007300739999N0000N0000005555N5   5   *6N596   000000061024N  N  N              000000000000000000                        0N3 0000008700000 YU0000252031    NY          120710BZ                 0*08790
568000000000L592381610000000001300000BEAVER CREEK             2302: HUDSON-ATLAN30 miles SE Lander, WY   999900328240            42431200108194800026368680919910100000030201150049000011NN50000000000A15302000001000004300131000134000000004300439999N0000N0000008788N5   5   *6N596   000000061024N  N  N              000000000000000000                        0N3 0000006600000 YU0000302031    NY          120710BZ                 0*08500
568000000000L592391610000000000700000SWEETWATER RIVER         2317: THREE FORKS-30 miles S Lander, WY    999900000000            42232400108371200032368680919790100000030201150061000011NN50000000000A15302000001000005100280000293000000005100519999N0000N0000007889N5   5   *3N576   000000061024N  N  N              000000000000000000                        0N3 0000001100000 YU0000302031    NY          120710BA                 2*08592
568000000000L592401610000000001300000SWEETWATER RIVER         2404: AGATE FLAT R11 mls NE Jeffrey City,WY999900055990            42311200107382400048368680819840100000030201150061000011NN50000000000A15302000002000004300134000274000000004300439999N0000N0000007779N5   5   *6N576   000000090824N  N  N              000000000000000000                        0N3 0000005600000 YU0000302031    NY          120710BZ                 0*08490
568000000000L592431610000000000700000MUDDY CREEK              3127: MUDDY CREEK 30 Ml N Medicine Bow, WY 999900000000            42134800106221200032368680920030100000030201150061000000NN50000000000A15302000001000006100180000183000000006100619999N0000N0000007655N5   5   *5N576   000000090824N  N  N              000000000000000000                        0N3 0000006800000 YU0000302031    NY          120710BZ                 0*08790
568000000000L592451610000000000700000MUDDY CREEK              3306: MUDDY CREEK 6 Miles SW Rawlins, WY   999900176190            41262400107273600032368680919850100000030201150061000011NN50000000000A15302000001000000000058000061000000004300439999N0000N0000008885N5   5   *6N576   000000090824N  N  N              000000000000000000                        0N3 0000006600000 YU0000302031    NY          120710BZ                 0*08490
568000000000L592461610000000000700000MUDDY CREEK              3306: MUDDY CREEK 7 Miles SW Rawlins, WY   999900191470            41270000107281200032368680919850100000030201150061000011NN50000000000A15302000001000000000070000073000000004300439999N0000N0000007788N5   5   *6N576   000000090824N  N  N              000000000000000000                        0N3 0000006600000 YU0000302031    NY          120710BZ                 0*08490
568000000000L592471610000000000700000MUDDY CREEK              3306: MUDDY CREEK 7 Miles SW Rawlins, WY   999900218820            41281200107292400032368680919850100000030201150061000011NN50000000000A15302000001000000000107000110000000004300439999N0000N0000007786N5   5   *6N576   000000090824N  N  N              000000000000000000                        0N3 0000006600000 YU0000302031    NY          120710BZ                 0*08490
568000000000L592481610000000000700000MUDDY CREEK              3306: MUDDY CREEK 7 Miles SW Rawlins, WY   999900000000            41074800107382400032368680919930100000030201150061000011NN50000000000A15302000001000004800180000184000000004800489999N0000N0000005787N5   5   *8N576   000000090824N  N  N              000000000000000000                        0N3 0000006500000 YU0000302031    NY          120710BZ                 0*08520
568000000000L592511610000000003700000SAND CREEK               1427: SAND CREEK T24 M E Baggs, WY         999900277550            41052400107554800032368680820030100000020201150061000011NN50000000000A15302000003000000000180000549000000004300439999N0000N0000007999N5   5   *6N576   000000090824N  N  N              000000000000000000                        0N3 0000006600000 YU0000202031    NY          120710BZ                 0*08500
568000000000L592521610000000003700000RED CREEK                3219: RED CREEK RO35 M NW Wamsutter, WY    999900000000            420600001081948000403686809195801000000302011500610000NNNN50000000000A15000000001000003800134000162000000003800389999N0000N0000002678N5   5   *4N576372000162061024N  N  N              0003010000000003012013                    0N3 0000008700000 YU0000302031    NY          120710BA                 1*07791
568000000000L592531610000000001300000SWEETWATER RIVER         SWEETWATER BRIDGE 42 M NE Farson, WY       999900125500            42303600109030000048368680719780100000025201150061000000NN50000000000A15702000002000003700073000146000000003700379999N0000N0000006458N5   5   *4N576   000000111024N  N  N              000000000000000000                        0N3 0000008700000 YU0000252031    NY          120710BA                 1*05691
568000000000L592541610000000003500000DRY SANDY CREEK          ROCK SPRINGS FIELD5 miles NE Farson, WY    999900041830            421536001090900000323686809198001000000402011500730000NNNN50000000000A15700000001000003400162000162000000003400349999N0000N0000007878N5   5   *3N576   000000111024N  N  N              000000000000000000                        0N3 00000087NN000 YU0000402031    NY          120710BA                 2*08092
568000000000L592551610000000002300000SMITHS FORK RIVER        4213: SMITHS FORK 60 M NW Kemmerer, WY     999900130330            422024001103112000803686807196301000000202011500610000NNNN50000000000A15302000001000000000134000138000000006100619999N0000N0000007877N5   5   *5N576382000061111024N  N  N              000000000000000008                        0N3 0000008700000 YU0000202031    NY          120710BZ                 0*09860
568000000000L592561610000000003700000SUBLETTE CREEK           4214: STOCK DRIVEW74 M NE Kemmerer, WY     999900310380            420224001093246720483686808200301000000202011500610000NNNN50000000000A15702000001000004900061000066000000004900499999N0000N0000007777N5   5   *3N576   000000010324N  N  N              000000000000000000                        0N3 0000008700000 YU0000202031    NY          120710BZ                 0*08342
568000000000L592571610000000000300000ALKALI DRAW              1111: ALKALI ROAD 10 Miles N of CR 228     999900160900            423112001095548000003686808200302000000302011500730000NNNN50000000000A15019000000000004600119000152000000004600463045N0000N000000NNN785   5   *2N5N6   000000019624N  N  N              000013000000000013                        0N2 030000NNNN000 YU0002002031    NY          120710BZ                 0*08852
568000000000L592581610000000001900000MIDDLE FORK POWDER RIVER 6214: BAR 'C' ROAD4 miles S, Barnum, WY    999900065970            43364032106532623322368680919760100000030201150049018011NN50000000000A15101000002000005200177000180000000005200529999N0000N0000007777N5   5   *3N596   000000101124N  N  N              000000000000000000                        0N3 0000001100000 YU0000302031    NY          120710BA                 2*08682
568000000000L592591610000000001900000BLUE CREEK               6214: BAR 'C' ROAD1 mile S Barnum, Wy      999900017700            433917101065433080053686809197602000000302011500730050NNNN50000000000A15319000000000005500000000189000000005500559999N0000N000000NNN775   5   *4N5N6   000000019524N  N  N              000000000000000000                        0N2 000000NNN0000 YU0000302031    NY          120710BZ                 0*09800
568000000000L592601610000000001900000SPRING CREEK             1150: SPRING CREEK6 M S Barnum,WY          999900064520            433653211065330480323686809200301000000252011500610000NNNN50000000000A15702000002000002700091000201000000002700279999N0000N0000004444N5   5   *2N576352000201019524N  N  N              0000300000150000452013                    0N3 0000008700000 YU0000202031    NY          120710BZ                 0*05291
568000000000L592611610000000001300000SIGNOR DRAW              2103: SIGNOR RIDGE36 M SE Riverton, WY     999900000000            42502400107543600040368680820030100000025201150061000000NN50000000000A15302000001000003700094000098000000003700379999N0000N00000045N8N5   5   *4N576   000000061024N  N  N              000000000000000000                        0N3 0000008700000 YU0000252031    NY          120710BZ                 0*06891
568000000000L592621610000000002500000NORTH PLATTE RIVER       6902: PATHFINDER R10 miles SW Alcova, WY   999900003220            422751981065017990323686809199502000000502011500730050111150000000000A15504000002000009100305000610000000009100919999N0000N0000008899N5   5   *7N596   000000101124N  N  N              000000000000000000                        0N2 0000009600000 YU0000502031    NY          120710BZ                 0*09990
568000000000L592661610000000001700000KIRBY CREEK              1426: RED HOLE ROA14 M NE Thermoposis, WY  999900008050            43442400108014800048368680820000100000020201150061000011NN50000000000A15302000001000004300210000219000000004300439999N0000N0000007998N5   5   *6N596   000000100924N  N  N              000000000000000000                        0N3 0000006600000 YU0000202031    NY          120710BZ                 0*08490
5680000000L18234281610000000001300000STRAWBERRY CREEK         2302: HUDSON-ATLAN18 M E SPass City, WY    999900000000            42270000108344800040368680720050100000020201150061000011NN50000000000A15302000001000004300149000152000000004300439999N0000N0000009997N5   5   *6N576   000000061024N  N  N              000000000000000000                        0N3 0000006700000 YU0000202031    NY          120710BZ                 0*08490
568000061550-001191600000000603900000GROS VENTRE RIVER        ROAD 5            NATIONAL ELK REFUGE      999900003220            433712001103724001993636309197501000000402010000610000000050000000000A15504000002000004200168000351000000004300469999N0000N9990006775N0360032476N585         101024N  N  N                                                        0N3 0000001100  0 Y40000502030    NY          120521BZ                 0 07550
5680202010000010021600002800401900000N.FORK CRAZY WOMAN CREEK FDR 28            1.2 MI NORTH OF HWY 16   999900019200000000000000000000000000000001583646409197701000000101992000360000000040000000000A15701000001000004800064000070000000004800519999N0000N3040007765N5504534268N575   000000061024N  N  N                                                        0N3 0019938700  0 Y500001520320000NY          120718BZ                 0 08230
5680202010000010041600000000401900000N FORK CRAZY WOMAN CREEK FDR 31            9.5 MI  N OF HWY 16      999900152000000000000000000000000000000000013646409197701000000251993000360000000040000000000A15701000001000004800070000073000000004800549999N0000N3040007755N5441531558N476   000000061024N  N  N                                                        0N3 0019938700  0 Y400003720320000NY          120718BZ                 0 07700
5680202010000010051600003300401900000CRAZY WOMAN CREEK        FDR 33            1.7 MI EAST OF HWY 16    999900027200000000000000000000000000000001583646409194501000000621992000300000000040000000000P15302000001000004200073000082000000004200489999N0000N3040006778N2162210845N073   000000061024N  N  N                                                        0N3 0019938700  0 Y800009320320000NY          120718BA                 2 04402
5680202010000010061610003300401900000CRAZY WOMAN CREEK        FDR 33            4.1 MI EAST OF HWY 16    999900065600000000000000000000000000000001583646409195401000000051992000360000101040000000000P15302000001000004200076000085000000004200489999N0000N3040007767N5378524365N263   000000061024N  N  N                                                        0N3 0019931100  0 Y800000720320000NY          120718BA                 2 06652
5680202010000010071600037300401900000MIDDLE FORK CLEAR CREEK  FDR 373           .50 MI WEST OF HWY 16    999900008000000000000000000000000000000000043646409195901000000251993000330000000040000000000P15702000001000004200076000082000000004200469999N0000N3040007677N5324522565N256   000000081124N  N  N                                                        0N3 0019938700  0 Y500003720320000NY          120718BZ                 0 06990
5680202020000012391600045200000700000NORTH SPRING CREEK       NFSR 452          NO DATA ENTERED          999900182080000000000000000000000000000000003646409195401000000500   000540000000040000000000A15702000001000000000068000074018018004200469999N0000N3040007777N5396529775N588   000000060924N  N  N                                                        0N3 0000008700  0 Y800007520320000NY          120718BZ                 0 07960
5680202040000010161610001700500300000SHELL CREKK              FDR 17            2.7 MI ON FDR 17         999900043200000000000000000000000000000001583646409194802000000451992500790000000040000000000P15101000001000006000148000159000000006000739999N0000N3040007777N5423526164N576   000000061024N  N  N                                                        0N2 0000001608  0 Y800006720320000NY          120718BZ                 0 07950
5680202050000010201600002700500300000WEST TENSLEEP CREEK      FDR 27            6.3 MI NORTH OF HWY 16   999900100800000000000000000000000000000001583646409196602000000101992300670000000040000000000A15302000003000006700076000141000000006700739999N0000N3040006677N5513536965N568   000000081124N  N  N                                                        0N2 0019881100  0 Y500001020130000NY          120718BZ                 0 09100
5680202050000030491600002700500300000WEST TENSLEEP CREEK      FSR 27            0.1 MI N OF HWY 16       999900001600000000000000000000000000000001583646409200202000002911992500850000111140000000000A15506000001000008500298000298000000008500859999N0000N3040008888N5360532486N588   000000081124N  N  N                                                        0N2 0000002600040 Y800043620320000NY          120718BZ                 0 09290
5680202060000010261610002600403300000BIG GOOSE CREEK          FDR 26            7.6 MI ON FDR 26         999900121600000000000000000000000000000001583646409198602000000561992500850450000040000000000P15702000001000007300100000106000000007300789999N0000N3040007767N5414527966N368   000000081124N  N  N                                                        0N2 0000008609  0 Y400008420320000NY          120718BZ                 0 08350
5680202060000030451600001500403300000NORTH TONGUE RIVER       FSR 15            1.3 MI ON FSR 15         999900020800000000000000000000000000000001583646409197002000001761992500730000101040000000000A15402000003000007300091000141000000007300799999N0000N3040007778N5   5   *5N587   000000091124N  N  N                                                        0N2 0000001200  0 Y800026420320000NY          120718BZ                 0*08720
5680202060000030461600001600403300000SOUTH TONGUE RIVER       FSR 16            9.7 MI ON FSR 16         999900155200000000000000000000000000000001583646409195901000000361992200420000100040000000000P15302000001000003600119000124000000003500429999N0000N3040007888N2342224363N598   000000081124N  N  N                                                        0N3 0000002200  0 Y800005420320000NY          120718BA                 2 06622
5680202060000030471600002600403300000SOUTH TONGUE RIVER       FSR 26            26.9 MI W ON FSR 26      999900430400000000000000000000000000000001583646409196102000000601992300670300100040000000000A15504000001000006700146000156000000006700739999N0000N3040007778N2342224365N587   000000081124N  N  N                                                        0N2 0000002200  0 Y500009020320000NY          120718BZ                 0 08410
5680202060000030481600002600403300000WEST FORK BIG GOOSE CR   FSR 26            13 MI FROM SE END OF 26  999900208000000000000000000000000000000009993646409196601000000561992600790000100040000000000A15302000001000006700121000130000000006700739999N0000N3040007878N2567238775N578   000000081124N  N  N                                                        0N3 0000002200  0 Y400008420320000NY          120718BZ                 0 08420
5680203010000100621600084300401100000BEAVER CREEK             FDR 843           T 53 N   R 63 W   SEC 22 99990004960000000000000000000000000000000024364640919400100000100199000042000111104N000000000A15702000001000004500070000075021021004500499999N0000N3040006665N5657547766N576   000000081124N  N  N                                                        0N3 0019878700450 Y600010020130000NY          120718BZ                 0 08740
5680203010000100701600838500401100000BEAVER CREEK             TAYLOR DIVIDE     T 54 N   R 63 W   SEC 24 99990000496000000000000000000000000000000004364640919610100000100199020048000011104N000000000A15701000001000004200073000076021021004200469999N0000N3040007767N5891568465N556   000000041124N  N  N                                                        0N3 0019908600300 Y600010020130000NY          120718BZ                 0 08300
5680203010000107621600863100401100000SAND CREEK DRAINAGE      FDR 863           T 51 N R 61 W SEC 11     999900206400000000000000000000000000000009993646409200701000000500   000000000111140000000000A15101000001000000000000000080000000004500549999N0000N3040007788N5   5   *6N586   000000041124N  N  N                                                        0N3 000000N000  0 Y800007520320000NY          120718BZ                 0*07980
5680203010000107641600863100001100000SAND CREEK               FDR 863           T51 N R 61 W SEC 2       999900182400000000000000000000000000000009993646409200501000000500   000420000111140000000000A15100000001000000000103000103000000004200529999N0000N3040008887N5   5   *5N586   000000041124N  N  N                                                        0N3 0000001900  0 Y800007520320000NY          120718BZ                 0*07610
5680206020000010001600010000000700000NORTH BRUSH CREEK        NFSR 100          NO DATA ENTERED          999900033600000000000000000000000000000000003646409198602000001122002500700300100040000000000A15504000001000030400152000159000000007000799999N0000N3040007887N2351232484N598   000000071024N  N  N                                                        0N2 0000009600  0 Y800016820320000NY          120718BZ                 0 08850
5680206020000010091600055000000700000N.F. ENCAMPMENT RIVER    NFSR 550          NO DATA ENTERED          999900032800000000000000000000000000000000003646409196701000000500   500000000000040000000000A15319000001000000000060000064000000000000009999N0000N304999NNN665   5   *NN586   000000081024N  N  N                                                        0N3 000000NNNN  0 Y400007520320000NY          120718BZ                 0*09700
5680206020000010221600044300000700000COW CREEK                Forest Road 443   NO DATA ENTERED          999900273600000000000000000000000000000000003646409198601000000500   500000000000040000000000A15919000001000000000103000103000000000000009999N0000N304000NNN885   5   *NN588   000000081024N  N  N                                                        0N3 000000NNNN  0 YU00007520320000NY          120718BZ                 0*09700
5680206020000010541600049600000700000E. FORK ENCAMPMENT RIVER NO DATA ENTERED   NO DATA ENTERED          999900181440000000000000000000000000000000003646409197201000000500   500510250000040000000000A15319000002000000000060000140000000000000009999N0000N304000NNN87536053247NN586   000000081024N  N  N                                                        0N3 000000NNNN  0 Y800007520320000NY          120718BZ                 0*09700
5680206020000012201600010000000700000TURPIN CREEK             NFSR 100          14.9 MI. NE OF SH 130    999900238400000000000000000000000000000000003646409195801000000372002200480300000040000000000A15702000001000030400090000095021021004200469999N0000N3040007777N5   5   *5N596   000000071024N  N  N                                                        0N3 0000008700  0 Y500005520320000NY          120718BZ                 0*08100
5680206020000012211600010000000700000MEDICINE BOW RIVER       NFSR 100          19.4 MI. NE OF SH 130    999900310400000000000000000000000000000000003646409195201000000682002000480000000040000000000A15702000002000030400070000148018018004200469999N0000N3040007678N5   5   *5N588   000000071024N  N  N                                                        0N3 0000008700  0 Y800010220320000NY          120718BZ                 0*08100
5680206020000012271600020600000700000SOUTH FRENCH CREEK       NFSR 206          9.3 MI. S. OF SH 130     999900027200000000000000000000000000000000003646409196001000000262002200480300000040000000000A15702000002000030400091000194018018004300479999N0000N3040007778N5   5   *6N596   000000081024N  N  N                                                        0N3 0000008700  0 Y800003920320000NY          120718BZ                 0*08200
5680206020000012281600023600000700000SOUTH FRENCH CREEK       NFSR 236          10.5 MI. S. FROM SH 130  999900044800000000000000000000000000000000003646409196801000000112002000420000000040000000000A15302000001000030400094000100024024004200479999N0000N3040006778N5   5   *5N597   000000081024N  N  N                                                        0N3 0000008700  0 Y800001620320000NY          120718BZ                 0*08100
5680206020000012291600021900000700000NORTH BRUSH CREEK        NFSR 219          4.1 MI. N. FROM SH 130   999900001600000000000000000000000000000000003646409198601000000172002500000000100040000000000A15702000001000030400094000099000000004700499999N0000N3040007778N5   5   *7N596   000000071024N  N  N                                                        0N3 0000008600  0 Y800002520320000NY          120718BZ                 0*08800
5680206020000012301600022500000700000SOUTH FRENCH CREEK       NFSR 225          8.5 MI. S. FROM SH 130   999900196800000000000000000000000000000000003646409196301000000112002400420000111140000000000A15702000001000030400094000103030030004200499999N0000N3040008878N2549239675N597   000000081024N  N  N                                                        0N3 0020028700  0 Y800001620320000NY          120718BZ                 0 08400
5680206020000012321600024100000700000NORTH BRUSH CREEK        NFSR 241          NO DATA ENTERED          999900001600000000000000000000000000000000003646409195201000000232002500450180000040000000000A15702000001000030400093000098018018004200469999N0000N3040007778N5   5   *5N586   000000071024N  N  N                                                        0N3 0000008700  0 Y500003420320000NY          120718BZ                 0*08100
5680206020000012331600026100000700000MAIN FORK BOW RIVER      NFSR 261          NO DATA ENTERED          999900356000000000000000000000000000000000003646409196401000000172002400000100100040000000000A15302000001000030400121000131024024004200479999N0000N3040007768N2522236065N588   000000071024N  N  N                                                        0N3 0000001100  0 Y800002520320000NY          120718BZ                 0 08200
5680206020000012371600044300000700000SOUTH SPRING CREEK       NFSR 443          NO DATA ENTERED          999900111040000000000000000000000000000000003646409197602000000500   000600340000040000000000P15701000001000000000070000073027027005000559999N0000N3040006678N529752166NN397   000000060924N  N  N                                                        0N3 0000008700  0 Y800007520320000NY          120718BZ                 0 07300
5680206020000012381600045200000700000JACK CREEK               NFSR 452          NO DATA ENTERED          999900136090000000000000000000000000000000003646409197602000000500   500880000100040000000000P15402000003000000000091000144030030007300799999N0000N3040006778N5450530676N598   000000060924N  N  N                                                        0N2 0000001100  0 Y800007520320000NY          120718BZ                 0 09220
5680206020000012421600050000000700000NORTH MULLEN CREEK       NFSR 500          NO DATA ENTERED          999900306560000000000000000000000000000000003646409195301000000232002000480000000040000000000A15702000001000030400069000074021021004200469999N0000N3040006778N5360526165N586   000000071024N  N  N                                                        0N3 0000008700  0 Y800003420320000NY          120718BZ                 0 07590
5680206020000012431600050000000700000FRENCH CREEK             NFSR 500          NO DATA ENTERED          999900416000000000000000000000000000000000003646409195201000000272002000480000000040000000000P15702000002000000000070000148018018004200469999N0000N3040007758N5144510845N198   000000081024N  N  N                                                        0N3 0000008700  0 Y800004020320000NY          120718BZ                 0 03930
5680206020000030771600049800000700000S. FORK BIG CREEK        NFSR 498          6.53 MI WEST OF HWY 230  999900104480000000000000000000000000000009993646409200201000000500   400390000111140000000000A15101000001000030400109000112030030003801069999N0000N3040009898N1531131574N588   000000101124N  N  N                                                        0N3 0000001800  0 Y800007520320000NY          120718BZ                 0 07480
5680206050000010011600033800000100000DOUGLAS CREEK            NFSR 338          NO DATA ENTERED          999900224000000000000000000000000000000000003646409195301000000842002000570000000040000000000P15702000001000030400069000075000000004200469999N0000N3040006778N5369527065N597   000000081024N  N  N                                                        0N3 0000008700  0 Y800012620320000NY          120718BZ                 0 07690
5680206050000010021600050900000100000LAKE CREEK               NFSR 509          NO DATA ENTERED          999900040000000000000000000000000000000000003646409195301000000182002000510000000040000000000P15702000001000030400069000075000000004200469999N0000N3040007778N5135509935N086   000000081024N  N  N                                                        0N3 0000008700  0 Y800002720320000NY          120718BA                 2 04532
5680206050000010031600053600000100000DOUGLAS CREEK            NFSR 536          536                      999900000160000000000000000000000000000000003646409196201000000272002500510000111140000000000A15504000001000000000152000162000000004200479999N0000N3040008878N1450127065N59637 000158081024N  N  N                          000140                        0N3 0000009600  0 Y800000520000000NY          110718BZ                 0 07990
5680206050000010041600054300100100000DOUGLAS CREEK            NFSR 543          0.8 MI WEST OF JCT 542   999900072000000000000000000000000000000000283646409196102000000642002400540220000040000000000A15302000001000030400151000167015015006700749999N0000N3040007758N2378237855N595   000000081024N  N  N                                                        0N2 0000001100  01Y800009620320000NY          120718BZ                 0 08390
5680206050000012221600010100000100000N. FORK LITTLE LARAMIE   NFSR 101          1.1 MI. NE OF SH 130     999900017600000000000000000000000000000000003646409197502000001772002500790000000040000000000A15701000001000030400064000067027027007400799999N0000N3040007758N5   5   *5N598   000000081024N  N  N                                                        0N2 0000008900  0 Y800026520320000NY          120718BZ                 0*08150
5680206050000012231600010100000700000N. FORK ROCK CREEK       NFSR 101          12.7 MI. NW OF SH 130    999900212000000000000000000000000000000000003646409195701000000322002000480000000040000000000P15702000001000030400093000103018018004300469999N0000N3040007778N2342224366N387   000000071024N  N  N                                                        0N3 0000008700  0 Y800004820320000NY          120718BZ                 0 07450
5680206050000012351600034900000100000LIBBY CREEK              NFSR 349          NO DATA ENTERED          999900001600000000000000000000000000000000003646409196101000000442002000480000100040000000000A15504000001000000000082000091024024004300479999N0000N3040006656N5486532456N598   000000081024N  N  N                                                        0N3 0000009100  0 Y800006620320000NY          120718BZ                 0 07200
5680206050000012361600035100000100000NASH FORK                NFSR 351          NO DATA ENTERED          999900070400000000000000000000000000000000003646409197602000000912002500000000000040000000000A15701000001000000000070000073000000007300799999N0000N3040008878N5387527976N597   000000081024N  N  N                                                        0N2 0000008600  0 Y800013620320000NY          120718BZ                 0 09390
5680206050000012441600051200000100000DOUGLAS CREEK            NFSR 512          NO DATA ENTERED          999900136000000000000000000000000000000000003646409195601000000782002000540000000040000000000P15702000002000030400076000160021021004200469999N0000N3040007755N2144210845N086   000000081024N  N  N                                                        0N3 0020008700  0 Y800011720320000NY          120718BZ                 0 03930
5680206090000012141600065800400100000LA BONTE CREEK           NFSR 658          NO DATA ENTERED          999900056000000000000000000000000000000000003646409196501000000500   500450190000040000000000A15702000001000004400074000081018018004200469999N0000N3040007767N5261519855N596   000000060924N  N  N                                                        0N3 0000008700  0 Y500007520320000NY          120718BZ                 0 06550
5680206090000012151600063300400100000HORSESHOE CREEK          NFSR 633          6 MI N OF HARRIS PARK    999900092800000000000000000000000000000000003646409195601000000500   000420190000040000000000P15702000002000030400074000154018018004200469999N0000N3040007756N2225216255N286   000000060924N  N  N                                                        0N3 0000008700  0 Y400007520320000NY          120718BZ                 0 04880
5680214010000010041600101100502900000LITTLE SUNLIGHT CREEK    FDR               NO DATA ENTERED          999900142400000000000000000000000000000001583646409197302000000500   500820250111040000000000A15502000001000008500143000152000000008500919999N0000N3040007777N2324232477N577   000000061024N  N  N                                                        0N2 0000001100  0 Y600007520320000NY          120718BZ                 0 09470
5680214010000010071600296300502900000SUNLIGHT CREEK           FDR               NEAR SUNLIGHT OVERLOOK   999900016000000000000000000000000000000001583646409195201000000500   000480000101040000000000A15103000003000000000165000432000000004200489999N0000N3040006665N5324521665N473   000000061024N  N  N                                                        0N3 0019991100  0 Y600007520320000NY          120718BA                 2 06192
5680214010000010251600010900502900000LODGEPOLE CREEK          FDR               CRANDALL RANGER STATION  999900001600000000000000000000000000000001583646409199101000000500   500420000111040000000000A15701000001000000000073000073000000004200429999N0000N3040007776N2630245975N576   000000061024N  N  N                                                        0N3 0019998600  0 Y600007520320000NY          120718BZ                 0 07860
5680214020000010281600208100502900000WILLOW CREEK             FDR               NO DATA ENTERED          999900170080000000000000000000000000000001583646409198101000000500   500480000000040000000000A15709000001000000000068000070000000004200489999N0000N3040007765N5423531565N586   000000061024N  N  N                                                        0N3 0019998700  0 Y600007520320000NY          120718BZ                 0 07530
5680214030000120571600030000001300000ROCK CREEK               NO DATA ENTERED   NO DATA ENTERED          999900368000000000000000000000000000000009993646409200901000000500   500000350NNNN40000000000A15107000001000000000091000091000000007000769999N0000N3040009989N5   5   *5N587   000000090924N  N  N                                                        0N3 0000002800  0 Y800007520320000NY          120718BZ                 0*09160
5680214040000010171600448100502900000NORTH FORK SHOSHONE      FDR               NO DATA ENTERED          999900003840000000000000000000000000000001583646409197001000000500   000420000000040000000000A15702000001000000000085000124000000003900429999N0000N3040005556N5378527954N596   000000061024N  N  N                                                        0N3 0019998000  0 Y600007520320000NY          120718BZ                 0 05940
5680214040000010211600435100502900000N.FORK SHOSHONE          FDR               NO DATA ENTERED          999900001600000000000000000000000000000001583646409194001000000500   000420000111140000000000P15302000001000000000304000319000000003900429999N0000N3040008877N5117507234N58635 000000061024N  N  N                                                        0N3 0019996700  0 Y600007520320000NY          120718BA                 2 03652
5680214040000030251600044600002900000KITTY CREEK              FSR 446           NO DATA ENTERED          999900001600000000000000000000000000000009993646409200701000000500   500000000111140000000000A15302000001000000000000000091000000004200489999N0000N3040009998N5   5   *5N576   000000061024N  N  N                                                        0N3 0000001100  0 Y600007520320000NY          120718BZ                 0*07610
5680214050000010291600028500501300000HORSE CREEK              FDR               NO DATA ENTERED          999900172800000000000000000000000000000001583646409196501000000500   400480000100040000000000B15702000002000000000076000157000000004200469999N0000N3040008765N5252518955N266   000000081024N  N  N                                                        0N3 0019998700  0 Y600007520320000NY          120718BZ                 0 05930
5680214050000010311600026300501300000WARM SPRINGS CREEK       FDR               NO DATA ENTERED          999900100800000000000000000000000000000001583646409198101000000500   500480000111040000000000A15506000002000000000157000329000000004200499999N0000N3040007777N5324532475N566   000000081024N  N  N                                                        0N3 0019992600  0 Y600007520320000NY          120718BZ                 0 07860
5680214050000010331600510100501300000BURROUGHS CREEK          FDR               NO DATA ENTERED          999900001600000000000000000000000000000001583646409195601000000500   500480000100040000000000A15702000001000000000088000094000000004200469999N0000N3040006666N5   5   *5N557   000000081024N  N  N                                                        0N3 0019998700  0 Y600007520320000NY          120718BZ                 0*07560
5680214050000010341600515100501300000BROOKS LAKE CREEK        FDR               NO DATA ENTERED          999900001600000000000000000000000000000001583646409197301000000500   500730300100040000000000B15702000001000000000091000097000000007300779999N0000N3040007675N5297520766N476   000000081024N  N  N                                                        0N3 0019993000  0 Y600007520320000NY          120718BZ                 0 07960
5680214050000030261600053200501300000WARM SPRING CREEK        FSR 532           Warm Spring Creek        999900151200000000000000000000000000000009993646409200801000000500   500000000111140000000000A15319000001000000000091000091000000000000009999N0000N304000NNN785   5   *NN586   000000081024N  N  N                                                        0N3 000000NNNN  01Y800007520320000NY          120718BZ                 0*09270
5680214050000130061600053200001300000SHERIDAN CREEK           NO DATA ENTERED   NO DATA ENTERED          999900258880000000000000000000000000000009993646409201101000000500   000000000111140000000000A15703000001000000000000000121000000004200479999N0000N3040009999N5   5   *5N596   000000021224N  N  N                                                        0N3 0000008700  0 Y700007520320000NY          120718BZ                 0*07610
5680401010000010471606014620003700000LINWOOD                  LUCERNE           .3 MI E JCT WYO-530      999900004800000000000000000000000000000000003646409196302000000201992500730000101040000000000A15119000002000030400013000088000000000000009999N0000N304000NNN875   5   *NN588   000000071036N  N  N                                                        0N2 000000NNNN  0 Y800003020320000NY          120718BZ                 0*09900
5680403010000010121611007200002300000N. FORK SMITH CREEK      FOREST ROAD 10072 T29N, R118W, S24         999900099200000000000000000000000000000000003646409198501000000500   400000000101040000000000A15505000001000006700000000164000000006700679999N0000N3040006788N5   5   *5N596   000000071024N  N  N                          000161                        0N3 1020351888  0 Y800007520320000NY          120718BZ                 0*09800
5680403010000010461611013800002300000LABARGE CREEK            FOREST ROAD 10138 NO DATA ENTERED          999901073600000000000000000000000000000000003646409196202000000500   200820000000040000000000A15702000001000007300064000067021021007300779999N0000N3040007778N5306518956N496   000000101124N  N  N                          000075                        0N2 0020128800  0 YU00007520320000NY          120718BZ                 0 07490
5680403010000010471611013800002300000LABARGE CREEK            FOREST ROAD 10138 NO DATA ENTERED          999901131200000000000000000000000000000000003646409196102000000500   200670000000040000000000A15702000001000007300088000091021021007300779999N0000N3040007778N5315523466N586   000000101124N  N  N                                                        0N2 0020118800  0 Y600007520320000NY          120718BZ                 0 08820
5680403010000010861411013800002300000LABARGE CREEK            FOREST ROAD 10138 NO DATA ENTERED          999901180800000000000000000000000000000000003646409200202000000500   400480000111140000000000A15505000001000000000121000128000000007900859999N0000N3040008888N5324532486N58635 000000101124N  N  N                                                        0N2 1020522888  0 Y500007520320000NY          120718BZ                 0 10000
5680403010000010891611007200002300000SMITHS FORK              FOREST ROAD 10072 8 MI. E. OF HIGHWAY 89   999900188800000000000000000000000000000000003646409199601000000500   400910000111140000000000A15105000001000007900092000097030030007900859999N0000N3040008888N5324532486N588   000000091024N  N  N                          000121                        0N3 1020462800  0 Y500007520320000NY          120718BZ                 0 09500
5680403010000010931611010300003500000LABARGE CREEK            FOREST ROAD 10103 NO DATA ENTERED          999900003200000000000000000000000000000000003646409199701000000500   200480000000040000000000A15302000001000004000088000091021021004000449999N0000N3040008878N5072503635N566   000000101124N  N  N                                                        0N3 1000005800  0 Y500007520320000NY          120718BA                 2 02972
5680403010000030441603022000003900000BLACK ROCK CREEK         30220             T45N, R112W, S31         999900001120000000000000000000000000000009993646409198202000000500   400000000100040000000000A15502000001000000000109000115000000007900859999N0000N3040008887N548653518NN586   000000081124N  N  N                                                        0N3 0000002600  0 Y500007520320000NY          120718BZ                 0 09070
5680403010000030571601006200002300000HAMS FORK                FOREST ROAD 10062 T26N, R117W, SECTION 9   999900220800000000000000000000000000000000003646409199701000000500   400000000111140000000000A15302000001000000000124000140015015004200489999N0000N3040008888N5270518955N596   000000081124N  N  N                                                        0N3 0000002800  0 Y500007520320000NY          120718BZ                 0 06690
5680403010000129771601013800002300000LABARGE CREEK            NO DATA ENTERED   NO DATA ENTERED          999900976000000000000000000000000000000009993646409200901000000500   000000000000040000000000A15702000001000000000085000085000000004200489999N0000N3040008888N5   5   *5N586   000000101124N  N  N                                                        0N3 0000008600  0 Y500007520320000NY          120718BZ                 0*07310
5680403020000010241611004600003500000NORTH PINEY CREEK        FOREST ROAD 10046 23 MI. W. OF BIG PINEY WY999900225600000000000000000000000000000000003646409195701000000500   200510000000040000000000P15702000003000003800073000195021021003800459999N0000N3040003336N5360526134N586   000000091024N  N  N                          000130                        0N3 0020078988  0 Y500007520320000NY          120718BZ                 0 02891
5680403020000010251611004600003500000SOUTH COTTONWOOD CREEK   FOREST ROAD 10046 NO DATA ENTERED          999900395200000000000000000000000000000000003646409198401000000500   000000000100040000000000A15303000001000000000085000091000000004200489999N0000N3040007768N5324532465N586   000000091024N  N  N                          000062                        0N3 0020346800  0 Y500007520320000NY          120718BZ                 0 08200
5680403020000010331611038900003500000NORTH HORSE CREEK        FOREST ROAD 10389 18 MI. W. OF DANIEL JCT. 999900048000000000000000000000000000000000003646409195601000000500   200480000000040000000000A15702000001000003800124000128021021003800429999N0000N3040006656N5387525254N585   000000091024N  N  N                          000080                        0N3 0020068800  0 Y500007520320000NY          120718BZ                 0 06170
5680403020000010341611038900003500000NORTH HORSE CREEK        FOREST ROAD 10389 22 MI. W. OF DANIEL JCT. 999900107200000000000000000000000000000000003646409195901000000500   200480000000040000000000A15702000001000003800129000134021021003800429999N0000N3040006555N5414527054N594   000000091024N  N  N                          000084                        0N3 0020098800  0 Y400007520320000NY          120718BZ                 0 06290
5680403020000010681613053000003500000CLIFF CREEK              FOREST ROAD 30530 NO DATA ENTERED          999900041600000000000000000000000000000000003646409197401000000500   200570300000040000000000A15702000001000004800118000121021021004800539999N0000N3040004657N5504534258N585   000000091024N  N  N                          000094                        0N3 0020248088  0 Y500007520320000NY          120718BZ                 0 06831
5680403020000010691613053000003500000CLIFF CREEK              FOREST ROAD 30530 NO DATA ENTERED          999900104000000000000000000000000000000000003646409195801000000500   200480000000040000000000A15702000001000004400094000097021021004400489999N0000N3040006775N5468532476N586   000000091024N  N  N                          000069                        0N3 0020088888  0 Y700007520320000NY          120718BZ                 0 08330
5680403020000129811601012500003500000NORTH COTTONWOOD CREEK   NO DATA ENTERED   NO DATA ENTERED          999900188000000000000000000000000000000009993646409200901000000500   500000000000040000000000A15502000001000000000109000109000000004200489999N0000N3040008888N5   5   *5N565   000000091024N  N  N                                                        0N3 0000002600  0 Y500007520320000NY          120718BZ                 0*07210
5680403030000010021641021000002300000SWIFT CREEK              FR 10210          2 MI. E. OF AFTON, WY    999900000170000000000000000000000000000000003646409195501000000500   200510000000040000000000B15702000001000004000000000091021021004000449999N0000N3040004457N2099205435N085   000000071024N  N  N                          000060                        0N3 0020058808  0 Y800007520320000NY          120718BZ                 0 02101
5680403030000010031641021400002300000GREYS RIVER              FR 10214          NO DATA ENTERED          999900001600000000000000000000000000000000003646409196301000000500   200540000000040000000000A15702000003000004400077000231021021004400489999N0000N3040006658N5405528856N585   000000091024N  N  N                          000165                        0N3 0020138888  0 Y500007520320000NY          120718BZ                 0 06780
5680403030000010071611000100002300000GREYS RIVER              FOREST ROAD 10001 6 MI. EAST OF ALPINE WY. 999900000600000000000000000000000000000000003646409196301000000500   200540000000040000000000A15305000002000004400226000411021021004400489999N0000N3040007768N5432527066N396   000000091124N  N  N                          000292                        0N3 0020148688  0 Y500007520320000NY          120718BZ                 0 07790
5680403030000010081611000200002300000GREYS RIVER              FOREST ROAD 10002 16 MI. SE. OF ALPINE WY. 999900001600000000000000000000000000000000003646409198201000000500   400000000101040000000000A15105000002000000000195000408000000005400609999N0000N3040006776N5324532473N596   000000091124N  N  N                          000326                        0N3 0020321808  0 Y500007520320000NY          120718BZ                 0 09382
5680403030000010091611000200002300000MURPHY CREEK             FOREST ROAD 10002 NO DATA ENTERED          999900025600000000000000000000000000000000003646409198001000000500   400540000100040000000000A15303000001000004200115000121000000004200489999N0000N3040006557N5324532455N585   000000091124N  N  N                          000086                        0N3 0020306800  0 Y400007520320000NY          120718BZ                 0 07000
5680403030000010101611000200002300000MURPHY CREEK             FOREST ROAD 10002 NO DATA ENTERED          999900041600000000000000000000000000000000003646409198001000000500   200670000100040000000000A15303000001000004800112000115000000004800549999N0000N3040007678N5324532468N586   000000091124N  N  N                          000093                        0N3 0020306800  0 Y500007520320000NY          120718BZ                 0 08430
5680403030000010151611013800002300000GREYS RIVER              FOREST ROAD 10138 3 MI. EAST OF ALPINE WY. 999900044800000000000000000000000000000000003646409195402000006000   500970300101140000000000A15303000002000008100188000390018018008100899999N0000N3040007778N5459530675N595   000000091124N  N  N                          000510                        0N2 0020308688  0 Y500090020320000NY          120718BZ                 0 08920
5680403030000010161611013800002300000LITTLE GREYS RIVER       FOREST ROAD 10138 10 MI. EAST OF ALPINE WY.999900153600000000000000000000000000000000003646409196802000000500   500910300111140000000000A15303000001000007900167000170021021007900869999N0000N3040007778N5306523466N487   000000091124N  N  N                          000215                        0N2 1020188688  0 Y700007520320000NY          120718BZ                 0 08620
5680403030000010171641014000002300000GREYS RIVER              FOREST ROAD 10138 NO DATA ENTERED          999900001600000000000000000000000000000000003646409197001000000500   400540000000040000000000A15702000002000004200121000243021021004200479999N0000N3040006378N5468532435N594   000000091024N  N  N                          000170                        0N3 0020208888  0 Y500007520320000NY          120718BZ                 0 03801
5680403030000010191611021100002300000SWIFT CREEK              FOREST ROAD 10211 T32N, R118W, S31         999900062860000000000000000000000000000000003646409199001000000500   400000000000040000000000A15105000001000000000140000146000000005700649999N0000N3040008888N5324532484N586   000000071024N  N  N                          000072                        0N3 0020302888  0 Y800007520320000NY          120718BZ                 0 09500
5680403030000010231611004300002300000GREYS RIVER              FOREST ROAD 10043 NO DATA ENTERED          999900001600000000000000000000000000000000003646409196701000000500   200510000000040000000000A15702000002000004200106000216021021004200499999N0000N3040006778N5378525265N584   000000091024N  N  N                          000125                        0N3 0020178688  0 Y500007520320000NY          120718BZ                 0 07270
5680403030000010361611012500002300000SHEEP CREEK              FOREST ROAD 10125 NO DATA ENTERED          999900009450000000000000000000000000000000003646409196702000000500   200880300000040000000000P15702000001000007800099000103021021007800839999N0000N3040007777N5324520766N586   000000091024N  N  N                          000125                        0N2 0020178800  0 Y400007520320000NY          120718BZ                 0 07900
5680403030000010371611012500002300000SHEEP CREEK              FOREST ROAD 10125 NO DATA ENTERED          999900014720000000000000000000000000000000003646409196702000000500   200880300000040000000000P15702000001000007800099000103021021007800839999N0000N3040007777N5324520766N586   000000091024N  N  N                          000125                        0N2 0020178800  0 Y500007520320000NY          120718BZ                 0 07900
5680403030000010381611012500002300000SHEEP CREEK              FOREST ROAD 10125 NO DATA ENTERED          999900042670000000000000000000000000000000003646409196702000000500   200880300000040000000000A15702000001000007800068000073021021007800839999N0000N3040006777N5450534276N585   000000091024N  N  N                          000089                        0N2 0020178800  0 Y500007520320000NY          120718BZ                 0 09100
5680403030000010391611012500002300000SHEEP CREEK              FOREST ROAD 10125 NO DATA ENTERED          999900043930000000000000000000000000000000003646409196702000000500   200880300000040000000000A15702000001000007800068000073021021007800839999N0000N3040007667N5450533366N585   000000091024N  N  N                          000088                        0N2 0020178800  0 Y600007520320000NY          120718BZ                 0 09100
5680403030000010881641015200002300000GREYS RIVER              FOREST ROAD 10152 T33N, R116W, S21         999900001600000000000000000000000000000000003646409198101000000500   400480000000040000000000A15307000001000003900147000153021021004200489999N0000N3040008788N5360523465N586   000000091024N  N  N                                                        0N3 0000008600  0 Y500007520320000NY          120718BZ                 0 07220
5680403030000010901611021100002300000SWIFT CREEK              FOREST ROAD 10211 T32N, R118W, S15         999900072000000000000000000000000000000000003646409199701000000500   500510000111140000000000A15702000001000004200065000073021021004200469999N0000N3040008888N1324132485N586   000000071024N  N  N                                                        0N3 0000008700  0 Y500007520320000NY          120718BZ                 0 08400
5680403030000010941611007900002300000DRY CREEK                FOREST ROAD 10079 3 MI. SE. OF AFTON WY    999900026350000000000000000000000000000000003646409196501000000500   200510300000040000000000A15702000001000004300070000073021021004300479999N0000N3040006756N5   5   *6N576   000000091124N  N  N                          000051                        0N3 0020158600  0 Y400007520320000NY          120718BZ                 0*07200
5680403030000010951611007900002300000DRY CREEK                FOREST ROAD 10079 4 MI. SE. OF AFTON WY    999900044300000000000000000000000000000000003646409197901000000500   400000000000040000000000A15702000001000004200085000091021021004200469999N0000N3040007775N5297521665N576   000000091124N  N  N                          000062                        0N3 0020298600  0 Y500007520320000NY          120718BZ                 0 06950
5680403030000010961611007900002300000DRY CREEK                FOREST ROAD 10079 4 MI. SE. OF AFTON WY    999900047500000000000000000000000000000000003646409197901000000500   200000000000040000000000A15702000001000004200085000091021021004200469999N0000N3040007755N5288521655N585   000000091124N  N  N                          000062                        0N3 0020298600  0 Y400007520320000NY          120718BZ                 0 05750
5680403030000010991611007900002300000DRY CREEK                FOREST ROAD 10079 5 MI. SE. OF AFTON WY    999900058440000000000000000000000000000000003646409196401000000500   200480300000040000000000A15702000001000004300064000067021021004300479999N0000N3040007755N5   5   *6N568   000000091124N  N  N                          000047                        0N3 0020148600  0 Y500007520320000NY          120718BZ                 0*07200
5680403030000011001611007900002300000DRY CREEK                FOREST ROAD 10079 5 MI. SE. OF AFTON WY    999900064540000000000000000000000000000000003646409197901000000500   400480000000040000000000A15702000001000004200067000073021021004200469999N0000N3040007766N5297522565N566   000000091124N  N  N                          000074                        0N3 0020298600  0 Y500007520320000NY          120718BZ                 0 07090
5680403030000011031611020800002300000COTTONWOOD CREEK         FOREST ROAD 10208 T30N, R118W, S3          999900052990000000000000000000000000000000003646409195501000000500   400450150000040000000000A15702000001000003800063000067021021003800429999N0000N3040004467N5   5   *4N565   000000080824N  N  N                          000063                        0N3 0000008900  0 Y500007520050000NY          110718BA                 1*05101
5680403030000011051611020800002300000COTTONWOOD CREEK         FDR 10208         T30N, R118W, S3          999900048780000000000000000000000000000000003646409195301000000500   400450240000040000000000A15702000001000003800081000085021021003800429999N0000N3040003355N5   5   *4N565   000000051024N  N  N                          000053                        0N3 0020038900  0 Y500007520320000NY          120718BZ                 0*03701
5680403030000011301611000200002300000MURPHY CREEK             FR 10002          11 MI. SE. OF ALPINE     999900067200000000000000000000000000000000003646409198001000000500   400450200000040000000000A15702000001000004100075000079021021004100489999N0000N3040007367N5414529735N585   000000091124N  N  N                          000084                        0N1 0020308800  0 Y400007520320000NY          120718BZ                 0 03761
5680403030000011311611000200002300000MURPHY CREEK             FR 10002          11 MI. SE. OF ALPINE     999900078400000000000000000000000000000000003646409198101000000500   000480000000040000000000A15702000001000004300076000079024024004300489999N0000N3040006758N5513533356N585   000000091124N  N  N                          000056                        0N1 0020308800  0 Y500007520320000NY          120718BZ                 0 07000
5680403030000030381601013800002300000DEADMAN CREEK            FOREST ROAD 10138 NO DATA ENTERED          999900424000000000000000000000000000000009993646409200202000000500   400000000000040000000000A15505000001000000000146000152000000007900859999N0000N3040008888N5324532486N586   000000081024N  N  N                                                        0N2 0000002600  0 Y500007520320000NY          120718BZ                 0 08970
5680403030000030391601013800002300000GREYS RIVER              FOREST ROAD 10138 T33N, R116W, S5          999900553600000000000000000000000000000009993646409200202000000500   500670000000040000000000A15507000001000000000115000121000000007900859999N0000N3040008888N132413248NN588   000000091024N  N  N                                                        0N3 1000002600  0 Y500007520320000NY          120718BZ                 0 08970
5680403030000030401601013800002300000BLIND BULL CREEK         FOREST ROAD 10138 T34N, R116W, S8          999900460800000000000000000000000000000009993646409200202000000500   500670000000040000000000A15707000001000000000079000085000000007900859999N0000N3040007758N549553695NN586   000000081024N  N  N                                                        0N3 1000008600  0 Y400007520320000NY          120718BZ                 0 07830
5680403030000030541601012300002300000BLIND BULL CREEK         10123             T. 34 N. R 116 W. S.9    999900043200000000000000000000000000000009993646409200302000000500   500420000000040000000000A15707000001000008500082000085000000004500489999N0000N3040006688N5   5   *NN588   000000081024N  N  N                                                        0N3 0000008600  0 Y500007520320000NY          120718BZ                 0*08190
5680403030000129831601013800002300000GREYS RIVER              NO DATA ENTERED   NO DATA ENTERED          999900860800000000000000000000000000000009993646409201001000000500   000000200000040000000000A15501000001000000000140000140000000004200489999N0000N3040008888N5   5   *5N586   000000091124N  N  N                                                        0N3 1000002600  0 Y500007520320000NY          120718BZ                 0*07310
5680403030000129841601013800002300000GREYS RIVER              NO DATA ENTERED   NO DATA ENTERED          999900916800000000000000000000000000000009993646409201001000000500   000480000000040000000000A15501000001000000000140000140000000004200489999N0000N3040008888N5   5   *5N586   000000091124N  N  N                                                        0N3 1000002600  0 Y500007520320000NY          120718BZ                 0*07310
5680403030000129851601013800002300000GREYS RIVER              NO DATA ENTERED   NO DATA ENTERED          999900904000000000000000000000000000000009993646409201001000000500   000000000000040000000000A15501000001000000000140000140000000004200489999N0000N3040008883N5   5   *5N584   000000091124N  N  N                                                        0N3 1000002600  0 YU00007520320000NY          120718BZ                 0*07100
5680403040000010501613040000003900000GROS VENTRE RIVER        FOREST ROAD 30400 20 MI. NE. OF JACKSON WY 999900138750000000000000000000000000000000003646409196902000000500   400970300101040000000000A15505000003000008500265000691033033008500929999N0000N3040006675N5531541467N594   000000081024N  N  N                          000265                        0N2 0020191188  0 Y700007520320000NY          120718BZ                 0 09200
5680403040000010521613046000003900000HOBACK RIVER             FOREST ROAD 30460 20 MI. SE. OF JACKSON WY 999900008000000000000000000000000000000000003646409196501000000500   400540000000040000000000A15303000002000004400166000335021021004400519999N0000N3040005645N5   5   *6N594   000000091024N  N  N                          000252                        0N3 0020158688  0 Y400007520320000NY          120718BZ                 0*05401
5680403040000010611613040000003900000CRYSTAL CREEK            FOREST ROAD 30400 19 MI. NE. OF JACKSON WY 999900166190000000000000000000000000000000003646409195201000000500   200420000000040000000000A15702000003000003800093000280000000003800459999N0000N3040004637N5405527934N596   000000081024N  N  N                          000186                        0N3 0020038888  0 Y500007520320000NY          120718BZ                 0 03291
5680403040000010671623052000003900000GRANITE CREEK            FOREST ROAD 30520 15 MI. EAST OF HOBACK JCT999900001600000000000000000000000000000000003646409198201000000500   400480000000040000000000A15504000001000005000173000176024021005000549999N0000N3040006878N5423536973N586   000000091024N  N  N                          000141                        0N3 0020321188  0 Y500007520320000NY          120718BZ                 0 08682
5680403040000010761613098000003900000MOSQUITO CREEK           FOREST ROAD 30980 8 MI. SW. OF JACKSON WY  999900040000000000000000000000000000000000003646409195601000000500   300000300100040000000000A15303000001000004200000000121000000004200459999N0000N3040005648N5324532445N595   000000081124N  N  N                          000081                        0N3 0020065888  0 Y500007520320000NY          120718BZ                 0 05301
5680403040000010801613100000003900000FALL CREEK               FOREST ROAD 31000 11 MI. S. OF JACKSON WY  999900080000000000000000000000000000000000003646409195501000000500   200480000000040000000000A15702000001000003900118000121018018003900429999N0000N3040004367N5   5   *4N566   000000090924N  N  N                          000076                        0N3 0000008688  0 Y500007520320000NY          120718BA                 1*04001
5680403040000010921643051900003900000GRANITE CREEK            FOREST ROAD 30519 NO DATA ENTERED          999900001600000000000000000000000000000000003646409195401000000500   000000000111140000000000B15702000003000003800075000228021021003800459999N0000N3040008667N5108506334N59637 000000091024N  N  N                          000152                        0N3 0020048888  0 Y500007520320000NY          120718BZ                 0 03562
5680403040000030591603050000003900000LITTLE GRANITE CREEK     FDR 30500         T39N, R113W, S 34        999900027200000000000000000000000000000009993646409200002000000500   500000300111140000000000A15507000001000000000146000158000000007900859999N0000N3040007878N132413247NN596   000000091024N  N  N                                                        0N3 0000002600  0 Y500007520320000NY          120718BZ                 0 09270
5680403040000129791603037300003900000GROS VENTRE RIVER        NO DATA ENTERED   NO DATA ENTERED          999900009600000000000000000000000000000009993646409200901000000500   000000000111140000000000A75302000001000000000000000213000000004200429999N0000N3040009998N5   5   *5N586   000000081024N  N  N                                                        0N3 0000006600  0 Y500007520320000NY          120718BZ                 0*07610
5680403040000150471613040000003900000HORSETAIL CREEK          FOREST ROAD 30400 17 MI. NE. OF JACKSON    999900086540000000000000000000000000000009993646409195402000000500   500000000111140000000000A15205000001000000000091000096000000007900859999N0000N3040008788N5324532476N568   000000081024N  N  N                                                        0N2 0000002800  0 Y800007520320000NY          120718BZ                 0 09270
5680403060000010531613001000003900000BLACKROCK CREEK          FOREST ROAD 30010 21 MI. E. OF MORAN WY    999900009600000000000000000000000000000000003646409198401000000500   400510000000040000000000A15702000001000004200082000085018018004200469999N0000N3040007778N5396529775N586   000000081024N  N  N                          000058                        0N3 0020348688  0 Y500007520320000NY          120718BZ                 0 07960
5680403060000010551613010000003900000NORTH FK. SPREAD CK.     FOREST ROAD 30100 11 MI. SE. OF MORAN WY   999900157850000000000000000000000000000000003646409196802000000500   200850300000040000000000B15702000001000007800099000103021021007800839999N0000N3040006768N5288521666N498   000000101124N  N  N                          000125                        0N2 0020188700  0 Y500007520320000NY          120718BZ                 0 08050
5680403060000010571613010000003900000SOUTH FK. SPREAD CKEEK   FOREST ROAD 30100 12 MI. SE. OF MORAN WY   999900169520000000000000000000000000000000003646409197101000000500   200540000000040000000000A15702000001000004200100000103021021004200469999N0000N3040005876N5288521665N398   000000101124N  N  N                          000180                        0N3 0020208700  0 Y500007520320000NY          120718BZ                 0 06850
5680403070000010001613706000003500000TOSI CREEK               FR 10156          6 MI. N. OF FOREST BOUN. 999900057600000000000000000000000000000000003646409196001000000500   000510200000040000000000P15702000001000004100118000121024024004100469999N0000N3040005648N5297519845N496   000000081024N  N  N                          000082                        0N3 0020108808  0 Y500007520320000NY          120718BZ                 0 04151
5680403070000010041613708500003500000DUTCH JOE CREEK          FOREST ROAD 10299 NO DATA ENTERED          999900032170000000000000000000000000000000003646409195601000000500   200480100000040000000000P15702000001000003800131000134021021003800429999N0000N3040004548N5297518944N485   000000081124N  N  N                          000083                        0N3 0020068908  0 Y500007520320000NY          120718BZ                 0 03591
5680403070000010051613708500003500000BIG SANDY CREEK          FOREST ROAD 10299 NO DATA ENTERED          999900095800000000000000000000000000000000003646409197401000000500   300450000000040000000000A15702000001000004200094000097021021004200469999N0000N3040007778N5513536075N585   000000081124N  N  N                          000067                        0N3 0020248808  0 Y500007520320000NY          120718BZ                 0 08000
5680403070000010141613707300003500000NEW FK. LK. SPILLWAY     FOREST ROAD 10099 NO DATA ENTERED          999900006400000000000000000000000000000000003646409195801000000500   200480000000040000000000A15700000006000003600048000274021021003600419999N0000N3040004458N5351526143N5N5   000000101124N  N  N                          000164                        0N3 0020088888  0 YU00007520320000NY          120718BZ                 0 04491
5680403070000010181613706000003500000GREEN RIVER              FOREST ROAD 10156 30 MI NW. OF PINEDALE WY.999900001600000000000000000000000000000000003646409197702000000500   400910000100040000000000A15105000003000007900152000426030030007900859999N0000N3040006667N5369536066N598   000000101124N  N  N                          000529                        0N2 0020271688  0 Y800007520320000NY          120718BZ                 0 09300
5680403070000010291613707800003500000BOULDER CREEK            FOREST ROAD 10104 NO DATA ENTERED          999900024000000000000000000000000000000000003646409196801000000500   200000000000040000000000P15702000002000004100109000222021021004100509999N0000N3040007758N5306520755N485   000000081124N  N  N                          000162                        0N3 0020188688  0 Y500007520320000NY          120718BZ                 0 05600
5680403070000010751613706000003900000SOUTH FORK FISH CREEK    FOREST ROAD 30900 NO DATA ENTERED          999900097600000000000000000000000000000000003646409196601000000500   200480000000040000000000A15702000002000004200088000179021021004200469999N0000N3040004748N5459534245N586   000000081024N  N  N                          000123                        0N3 0020168888  0 Y800007520320000NY          120718BZ                 0 05101
5680403070000030461603706500003500000KENDALL SPRING           370650            T38N, R110W, S11         999900067200000000000000000000000000000009993646409199501000000500   500000000000040000000000A15502000001000000000090000096000000005400609999N0000N3040006688N5   5   *3N596   000000101124N  N  N                                                        0N3 0000002800  0 Y800007520320000NY          120718BA                 2*08432
5680415030000010131602026100003900000CASCADE CREEK            ROAD              NO DATA ENTERED          999900235200000000000000000000000000000000003646409199201000000500   500000000000040000000000A15702000001000000000091000091018018004500489999N0000N3040007878N5567543276N577   000000101124N  N  N                                                        0N3 0000008600  0 Y400007520320000NY          120718BZ                 0 08450
5680415030000010141602026400003900000JACKASS CREEK            ROAD              NO DATA ENTERED          999900054400000000000000000000000000000000003646409196201000000500   000000300000040000000000A15702000001000000000067000067015015004500489999N0000N3040006547N5432531546N576   000000101124N  N  N                                                        0N3 0000008600  0 Y600007520320000NY          120718BA                 1 05721
5680415030000010151602026400003900000SOUTH BOONE CREEK        ROAD              NO DATA ENTERED          999900116800000000000000000000000000000000003646409197401000000500   000000300000040000000000A15702000001000000000091000091021021004200469999N0000N3040007777N5306522565N587   000000101124N  N  N                                                        0N3 0000008600  0 Y800007520320000NY          120718BZ                 0 07090
5680415040000010161405008700002300000SALT RIVER               ROAD              NO DATA ENTERED          999900430400000000000000000000000000000000003646409198302000000500   500000000100040000000000A15501000002000000000137000274030030005400609999N0000N3040007776N560355677NN586   000000101124N  N  N                                                        0N0 0000002600  0 Y700007520320000NY          120718BZ                 0 09800
5680415050000010001602000700003900000N. LEIGH CREEK           ROAD              NO DATA ENTERED          999900032000000000000000000000000000000000003646409197401000000500   400000300100040000000000A15504000001000004200124000124030030004200489999N0000N3040007878N5288527975N585   000000101124N  N  N                                                        0N3 0000001100  0 Y500007520320000NY          120718BZ                 0 07790
5680415050000010011602000700003900000N. LEIGH CREEK           ROAD              NO DATA ENTERED          999900074940000000000000000000000000000000003646409198301000000500   500000000000040000000000A15702000001000004200085000085015015004200459999N0000N3040007777N5333525265N576   000000091124N  N  N                                                        0N3 0000008600  0 Y800007520320000NY          120718BZ                 0 07470
5680415050000010031602000900003900000BRANCH OF N. TETON CR.   ROAD              NO DATA ENTERED          999900070400000000000000000000000000000000003646409198401000000500   500000000000040000000000A15702000001000004200097000097042042004200469999N0000N3040007778N5297522565N586   000000091124N  N  N                                                        0N3 0000008600  0 Y800007520320000NY          120718BZ                 0 07090
5680415050000010051602001200003900000DARBY CREEK              ROAD              NO DATA ENTERED          999900020800000000000000000000000000000000003646409196001000000500   400000000000040000000000A15702000001000004200073000073030030004200489999N0000N3040005547N5522536945N586   000000101124N  N  N                                                        0N3 0000008600  0 Y300007520320000NY          120718BA                 1 05301
5680415050000010061602001200003900000DARBY CREEK              ROAD              NO DATA ENTERED          999900033600000000000000000000000000000000003646409195201000000500   400000000000040000000000A15702000001000003900091000091015015003900429999N0000N3040003336N5324524334N493   000000111124N  N  N                                                        0N3 0000008600  0 Y300007520320000NY          120718BA                 1 02451
5680419050000010251604007500104100000EAST FORK SMITHS FORK    ROAD 40075        NO DATA ENTERED          999900033600000000000000000000000000000000003646409198201000000500   400790300100040000000000A15501000001000000000124000131030030007900859999N0000N3049997766N2450240566N598   000000101124N  N  N                                                        0N3 0020209600  0 Y500007520320000NY          120718BZ                 0 09800
5680419050000010261604007500104100000GILBERT CREEK            ROAD 40075        NO DATA ENTERED          999900040000000000000000000000000000000000003646409198201000000500   400790150100040000000000A15501000001000000000106000112030030007900859999N0000N3049997788N2486240576N578   000000101124N  N  N                                                        0N3 0020209600  0 Y500007520320000NY          120718BZ                 0 09800
5681320002P00000001610001300500300000CROOKED CREEK            BAD PASS ROAD     FROM N.P. VISITOR CENTER,999900003200            445734201081716701993666608197102000000552007501830300111150000000000A15104000001000018900122000125000000018901959999N0000N0000006777N1481129079N578352      081124N  N  N              0000000000000000002011                    0N2 03    11000101Y70001502027    NY          120711BZ                 0 09240
5681390001P00000001210139000401100000BELLE FOURCHE RIVER      ENTRANCE ROAD     26.6 MILES NORTHEAST OF I999900002600            443521801044211401993666609198002000010002011500850000111150000000000A55206000003000008500366000914012000008501089999N0000N0000006668N1545132765N558352      101124N  N  N              0000000000000000002011                    0N2 03    1000100 Y50015002031    NY          120711BZ                 0 07500
5681420003P00000001610000000201500000LARAMIE RIVER            ENTRANCE ROAD (FUT0.6 MILES WEST OF FORT LA999900009700            4211586010432108000830166091976020000005020075009100901NNN50000000000A15602000003000009100229000594000000009101009999N0000N0000007776N5545532777N578352      101124N  N  N              0000000000000000002011                    0N2 03    1100010 Y60001252027    NY          120711BZ                 0 10000
5681460001P00000001610001000003900000COTTONWOOD CREEK         TETON PARK ROAD   3 miles north of Moose, W999900061300            434151601104345500803666608196302000020002007400760150111150000000000A15104000003000008700183000305006006008701059999N0000N9990006777N2508231875N558352      091124N  N  N              0000000000000000002009                    0N2 03    16002001Y80050002027    NY          120711BZ                 0 08300
5681460002P00000001610001000603900000GROS VENTRE RIVER        U.S. ROUTE 89     6.1 miles north of Jackso999900022400            433358901104359101213666608196202000080002011400980000111150000000000A15204000005000011100168000765000000011101219999N0000N9990007676N1490129964N588   000305091124N  N  N              0003250000330004882009                    0N2 03198616000101Y80120002031    NY          120711BZ                 0 08000
5681460003P00000001610001000303900000SPREAD CREEK             U.S. ROUTE 89     26.1 miles north of Jacks999900344700            434729401103218001213666608195602000050002011200850000111150000000000A15402000003000008500177000464000000010401149999N0000N9990007654N2381226355N558351      091124N  N  N              0001200000120001802009                    0N2 03    19000101Y40100002031    NY          120711BZ                 0 06540
5681460004P00000001610001000303900000BUFFALO FORK             U.S. ROUTE 89     0.2 miles south of Moran 999900442100            435016401103046601213666608195602000050002011200820200111150000000000A15402000004000008500204000735005005010201139999N0000N9990007766N2399227264N568351      091124N  N  N              0000300000030000452009                    0N2 03    19070101Y50100002031    NY          120711BZ                 0 07750
5681460005P00000001211460500603900000SNAKE RIVER              TETON PARK ROAD   0.3 miles west of junctio999900005600            433912901104250101203666608195602000025002011200790000100050000000000A15402000006000008600290001353012000008601459999N0000N9990006767N2363224564N578351      091124N  Y60N      0708    0000300000030000452009                    0N2 03    15000101Y40035002031    NY          120711BZ                 0 06460
5681460006P00000001610001300003900000CHRISTIAN CREEK          U.S. ROUTE 89     5 miles west of Moran Jun999900076900            435235801103417201993666608196302000050002011400850000000050000000000A55402000005000008700332001521006012008701129999N0000N9990006778N1535135474N598351      091124N  N  N              0000300000030000452009                    0N2 03    10000101Y80075002031    NY          120711BZ                 0 06000
5681460007P00000001610001300003900000PILGRIM CREEK            U.S. ROUTE 89     7.9 miles northwest of Mo999900113000            435413201103512901993666608196102000050002011400850000100050000000000A15204000007000008600165001073000000008601059999N0000N9990006676N1408125464N558351      091124N  N  N              0002210000220003322009                    0N2 03    10000101Y50100002031    NY          120711BZ                 0 05400
5681460008P00000001610001000603900000GROS VENTRE IRRIGATION D U.S. ROUTE 89     6.3 miles north of Jackso999900026100            433410901104359501213666608196302000080002011400910200111150000000000A15104000001000008500180000192006006011001219999N0000N9990006676N5376522554N568352      091124N  N  N              0000000000000000002009                    0N2 03    16000101Y80120002031    NY          120711BZ                 0 07020
5681460009P00000001610001300003900000PACIFIC CREEK            U.S. ROUTE 89     1.5 miles west of Moran J999900013800            435102701103104301213666608195802000050002011400880000100050000000000A15302000001000008500274000287005005008501019999N0000N9990007666N2381225464N558351      091124N  N  N              0001550000160002332009                    0N2 03    16000101Y80100002031    NY          120711BZ                 0 05730
5681460010P00000001610001300003900000SNAKE RIVER              U.S. ROUTE 89     2 miles south of North En999900394400            440546201104003301993666608195002000050002011001010000111150000000000A15402000003000007900213000549005005009801099999N0000N9990007876N5545532774N568352000549091124N  N  N              0000000000000000002011                    0N2 0320091000010 Y70075002031    NY          120711BZ                 0 07800
5681460011P00000001210146000603900000DITCH CREEK              TETON FOREST ACCES1 mile north of Moose Jun999900026200            433947801103756601993666608196002000003002011000760000NNNN50000000000A15219000002000007600030000070000000000000009999N0000N999000NNN64540952454NN558351000070091124N  N  N              0001000000100001502009                    0N2 031977NNNN0301Y80007002031    NY          120711BA                 1*05501
5681460012P00000001210146000603900000DITCH CREEK              MORMON ROW        1 mile north of Moose Jun999900037500            4339259011039512000536666092001010000500020110004600000NNN5N000000000A15302000001000004600125000125000000004500489999N0000N9990006786N5209512532N578352      091124N  N  N              0000000000000000002009                    0N3 03    80000001Y70100002031    NY          120711BA                 2 04782
5681460013P00000001210146000303900000LAKE CREEK               MOOSE WILSON ROAD 0.6 miles west of Moose J999900071800            433733601104702400483666609200502000002002011500610000000050000000000A15302000001000005400146000152000000005500609999N0000N9990007777N554553277NN586351      091124N  N  N              0000000000000000002009                    0N3 03    87000201Y80005002031    NY          120711BZ                 0 08140
5681460014P00000001210146000303900000COTTONWOOD CREEK         CLIMBERS RANCH ROA4.3 miles northwest of Mo999900004500            434234301104352601993666609200501000000302011500370000000050000000000A15302000001000004300129000134000000004300489999N0000N9990007777N5545532776N558352      091124N  N  N              0000000000000000002009                    0N3 03    87000101Y80000502031    NY          120711BZ                 0 07570
5681460015P00000001210146000603900000COTTONWOOD CREEK         LUPINE MEADOWS ROA7.3 miles northwest of Mo999900002300            434444901104337701993666608200501000000302011500340000000050000000000A15302000003000003200109000334000000004300489999N0000N9990007777N5545532776N576   000335091124N  N  N              0000000000000000002009                    0N3 03    87000101Y80000752031    NY          120711BZ                 0 07670
5681460016P00000001610001300003900000ARIZONA CREEK            U.S. ROUTE 89     5 miles north of Colter B999900229000            4358245011038443019936666081935020000500020110007300000NNN50000000000A15219000003000007900030000104000000000000009999N0000N999000NNN45540952455NN558351      091124N  N  N              0000750000080001132009                    0N2 03    N6000101Y80100002031    NY          120711BZ                 0*06080
5681460017P00000001210146000303900000POLECAT CREEK            GRASSY LAKE ROAD  1.0 miles west of Flagg R999900016300            440638001104117901993666609197502000001002011000700000000050000000000A15702000002000007900110000223000000007900839999N0000N9990007677N2420231666N558   000223091124N  N  N              0000000000000000002011                    0N2 03    86000101Y80003002031    NY          120711BZ                 0 08980
5681460018P00000001610001000303900000CREEK                    U.S. ROUTE 89     4 miles south of Moran Ju999900346000            434707601103226801213666608195702000035002011000760000111150000000000A15219000004000009600018000082000000000001759999N0000N999000NNN66540952456NN578         091124N  N  N              0000000000000000002009                    0N2 03    NNNN0101Y80070002031    NY          120711BZ                 0*07610
5681460019P00000001680000000003900000BAILY CREEK              BAILY CREEK ROAD  1.6 MILES SOUTH OF 016P, 999900000000            4358358011037153000036666092005010000000220110002900000NNN5N000000000A15302000001000003200123000123000000003200379999N0000N9990007875N1397123862N568   000122091124Y24N  N  0911        0000000000000000002009                    0N3 00    87000001Y500000220310000NY          120711BZ                 0 07282
5681570001P00000001610001000002900000RAVINE                   GRAND LOOP ROAD   4.5 MILES SOUTH OF MAMMOT999900071500            445607601104320600793666608197702000018072008500790170111N50000000000A10602000006000008900166000997000000008900989999N0000N000000667NN5430532065N5N8         091024N  N  N              0000200000020000302006                    0N2 03    1000010 YN0021682028    NY          110714BZ                 0 08640
5681570002P00000001610001000002900000GARDNER RIVER            GRAND LOOP ROAD   8.0 MILES SOUTH OF MAMMOT999900152900            4453096011043530019936666081936020000180720082006701700NNN50000000000A15104000003000007300082000232000000007600829999N0000N0000005447N5327519644N578311      091024N  N  N              0007350000740011032006                    0N2 03    1600010 Y30021682028    NY          110714BA                 1 02641
5681570003P00000001610001000002900000GIBBON RIVER             GRAND LOOP ROAD   21 MILES SOUTH OF MAMMOTH999900325400            4444168011041561007936666081960020000180720085009100001NNN50000000000A15302000001000008700158000158010005008701079999N0000N0000006676N1360124065N568         091024N  N  N              0000650000070000982006                    0N2 03    1600010 Y80021682028    NY          110714BZ                 0 07640
5681570004P00000001680021100003900000OBSIDIAN CREEK           INDIAN CREEK CAMPG8.4 MILES SOUTH OF MAMMOT999900001600            4452553011044063019936666091911010000007520080005200000NNN20000000000P15303000001000004400110000117000000004400509999N0000N0000005545N1172110026N066311      091024Y24N  N  0910        0002500000250003752006                    0N3 03    8700010 Y40001502028    NY          110714BA                 1 01911
5681570005P00000001610001000003900000GIBBON RIVER             GRAND LOOP ROAD   4.9 MI. SOUTH OF NORRIS J999900413400            4441027011044402011336666081936020000180720085011000001NNN50000000000A15402000003000009200122000335000000009201029999N0000N0000007866N1545132765N556         091024N  N  N              0000000000000000002006                    0N2 0320021600010 Y70021682028    NY          110714BZ                 0 07700
5681570006P00000001610001000003900000BERYL SPRING OVERFLOW    GRAND LOOP ROAD   8.2 MI. NE OF MADISON JCT999900419400            444044701104446601993666608196202000018072008400700000000050000000000A50702000010000008400073000707000000008400919999N0000N000000666NN1432132564N5N8         091024N  N  N              0000000000000000002006                    0N2 0320028600010 YN0021682028    NY          110714BZ                 0 06630
5681570007P00000001610001000003900000GIBBON RIVER             GRAND LOOP ROAD   7.5 MI. NE OF MADISON JCT999900433100            4440049011044396012136666082002020000180720085008503001NNN50000000000A15502000001000009100318000330000000009101059999N0000N0000007776N1545132775N588         091024N  N  N              0000000000000000002006                    0N2 03    2600010 Y80021682028    NY          110714BZ                 0 08270
5681570009P00000001610001000003900000GIBBON RIVER             GRAND LOOP ROAD   0.5 MI. SOUTH OF MADISON 999900557300            4438261011051400012136666081960020000180720085011002001NNN50000000000A55206000003000009500216000338015006009501279999N0000N0000005576N5435532755N568         091024N  N  N              0000000000000000002006                    0N2 03    1000010 Y80021682028    NY          110714BZ                 0 06580
5681570010P00000001610001000003900000NEZ PERCE CREEK          GRAND LOOP ROAD   6.5 MI. SOUTH OF MADISON 999900650600            4434227011049143019936666081935020000180720085010104501NNN50000000000A15201000003000009100080000239000000009101019999N0000N0000007767N5435532665N578         091024N  N  N              0000000000000000002006                    0N2 0319971000010 Y80021682028    NY          110714BZ                 0 07030
5681570011P00000001610001000003900000FIREHOLE RIVER           GRAND LOOP ROAD   14.6 MI. SOUTH OF MADISON999900776500            4428586011051091012136666081967020000180720085010400001NNN50000000000A15204000003000008500201000311009009008501109999N0000N0000006677N5435532765N568         091024N  N  N              0000000000000000002006                    0N2 03    1000010 Y80021682028    NY          110714BZ                 0 07260
5681570012P00000001610001700003900000GRAND LOOP ROAD          OLD FAITHFUL INTER17.5 MI. NW OF WEST THUMB999900000300            4427409011050417000236666091969020500385220085009100001NNN50000000000A11204000002000009800248000456000000009801139999H0470H031011567NN543553276465N8         091024N  N  N              0003300000330004952006                    0N2 03    1000010 YN0046222028    NY          110714BZ                 0 09660
